{
  "contractName": "ERC721",
  "abi": [
    {
      "inputs": [],
      "stateMutability": "nonpayable",
      "type": "constructor"
    },
    {
      "anonymous": false,
      "inputs": [
        {
          "indexed": true,
          "internalType": "address",
          "name": "_owner",
          "type": "address"
        },
        {
          "indexed": true,
          "internalType": "address",
          "name": "_approved",
          "type": "address"
        },
        {
          "indexed": true,
          "internalType": "uint256",
          "name": "_tokenId",
          "type": "uint256"
        }
      ],
      "name": "Approvals",
      "type": "event"
    },
    {
      "anonymous": false,
      "inputs": [
        {
          "indexed": true,
          "internalType": "address",
          "name": "_from",
          "type": "address"
        },
        {
          "indexed": false,
          "internalType": "address payable",
          "name": "_to",
          "type": "address"
        },
        {
          "indexed": false,
          "internalType": "uint256",
          "name": "_amount",
          "type": "uint256"
        },
        {
          "indexed": true,
          "internalType": "uint256",
          "name": "_tokenId",
          "type": "uint256"
        }
      ],
      "name": "Sell",
      "type": "event"
    },
    {
      "anonymous": false,
      "inputs": [
        {
          "indexed": true,
          "internalType": "address",
          "name": "_from",
          "type": "address"
        },
        {
          "indexed": true,
          "internalType": "address",
          "name": "_to",
          "type": "address"
        },
        {
          "indexed": true,
          "internalType": "uint256",
          "name": "_tokenId",
          "type": "uint256"
        }
      ],
      "name": "Transfer",
      "type": "event"
    },
    {
      "anonymous": false,
      "inputs": [
        {
          "indexed": true,
          "internalType": "address",
          "name": "_from",
          "type": "address"
        },
        {
          "indexed": true,
          "internalType": "address",
          "name": "_to",
          "type": "address"
        },
        {
          "indexed": true,
          "internalType": "uint256",
          "name": "_tokenId",
          "type": "uint256"
        },
        {
          "indexed": false,
          "internalType": "string",
          "name": "name",
          "type": "string"
        },
        {
          "indexed": false,
          "internalType": "string",
          "name": "description",
          "type": "string"
        }
      ],
      "name": "minting",
      "type": "event"
    },
    {
      "inputs": [
        {
          "internalType": "bytes4",
          "name": "interfaceID",
          "type": "bytes4"
        }
      ],
      "name": "supportsInterface",
      "outputs": [
        {
          "internalType": "bool",
          "name": "",
          "type": "bool"
        }
      ],
      "stateMutability": "view",
      "type": "function"
    },
    {
      "inputs": [
        {
          "internalType": "address",
          "name": "_owner",
          "type": "address"
        }
      ],
      "name": "balanceOf",
      "outputs": [
        {
          "internalType": "uint256",
          "name": "",
          "type": "uint256"
        }
      ],
      "stateMutability": "view",
      "type": "function"
    },
    {
      "inputs": [
        {
          "internalType": "uint256",
          "name": "_tokenId",
          "type": "uint256"
        }
      ],
      "name": "ownerOf",
      "outputs": [
        {
          "internalType": "address",
          "name": "",
          "type": "address"
        }
      ],
      "stateMutability": "view",
      "type": "function"
    },
    {
      "inputs": [
        {
          "internalType": "address",
          "name": "_from",
          "type": "address"
        },
        {
          "internalType": "address",
          "name": "_to",
          "type": "address"
        },
        {
          "internalType": "uint256",
          "name": "_tokenId",
          "type": "uint256"
        }
      ],
      "name": "transferFrom",
      "outputs": [],
      "stateMutability": "nonpayable",
      "type": "function"
    },
    {
      "inputs": [
        {
          "internalType": "address",
          "name": "_from",
          "type": "address"
        },
        {
          "internalType": "address payable",
          "name": "_to",
          "type": "address"
        },
        {
          "internalType": "uint256",
          "name": "_amount",
          "type": "uint256"
        },
        {
          "internalType": "uint256",
          "name": "_tokenId",
          "type": "uint256"
        }
      ],
      "name": "SellNFT",
      "outputs": [],
      "stateMutability": "payable",
      "type": "function"
    },
    {
      "inputs": [
        {
          "internalType": "address",
          "name": "_to",
          "type": "address"
        },
        {
          "internalType": "uint256",
          "name": "_tokenId",
          "type": "uint256"
        }
      ],
      "name": "approval",
      "outputs": [],
      "stateMutability": "nonpayable",
      "type": "function"
    },
    {
      "inputs": [
        {
          "internalType": "uint256",
          "name": "tokenId",
          "type": "uint256"
        }
      ],
      "name": "burn",
      "outputs": [],
      "stateMutability": "nonpayable",
      "type": "function"
    }
  ],
  "bytecode": "0x60806040523480156200001157600080fd5b50620000437f1584ba3821f2482cfd183eacb8962ebf3b6b7785a696f73fa327cc1d1b8847ba620000be60201b60201c565b620000b87f22c82707ba960a14c7592ffb6b8cfaa073fed0048a84cc7fa41f6b5bd8e7f2e47f3a6eb71757dfc6e784c1459d26270140c2c147d95ca985c80026fc5301c3eca17f8a7e378434598edc36d108689a030cbc9d7d465de4f74c71bae1028eed6a881b1818620000be60201b60201c565b62000219565b63ffffffff60e01b817bffffffffffffffffffffffffffffffffffffffffffffffffffffffff191614156200012a576040517f08c379a00000000000000000000000000000000000000000000000000000000081526004016200012190620001f7565b60405180910390fd5b6001600080837bffffffffffffffffffffffffffffffffffffffffffffffffffffffff19167bffffffffffffffffffffffffffffffffffffffffffffffffffffffff1916815260200190815260200160002060006101000a81548160ff02191690831515021790555050565b600082825260208201905092915050565b7f696e76616c696420696e74657266616365207265717565737400000000000000600082015250565b6000620001df60198362000196565b9150620001ec82620001a7565b602082019050919050565b600060208201905081810360008301526200021281620001d0565b9050919050565b61150b80620002296000396000f3fe6080604052600436106100705760003560e01c806350d990921161004e57806350d99092146101045780636352211e1461012057806370a082311461015d57806375247a581461019a57610070565b806301ffc9a71461007557806323b872dd146100b257806342966c68146100db575b600080fd5b34801561008157600080fd5b5061009c60048036038101906100979190610d90565b6101c3565b6040516100a99190610dd8565b60405180910390f35b3480156100be57600080fd5b506100d960048036038101906100d49190610e87565b61022a565b005b3480156100e757600080fd5b5061010260048036038101906100fd9190610eda565b61023a565b005b61011e60048036038101906101199190610f45565b61028f565b005b34801561012c57600080fd5b5061014760048036038101906101429190610eda565b61051f565b6040516101549190610fbb565b60405180910390f35b34801561016957600080fd5b50610184600480360381019061017f9190610fd6565b6105d1565b6040516101919190611012565b60405180910390f35b3480156101a657600080fd5b506101c160048036038101906101bc919061102d565b610689565b005b6000806000837bffffffffffffffffffffffffffffffffffffffffffffffffffffffff19167bffffffffffffffffffffffffffffffffffffffffffffffffffffffff1916815260200190815260200160002060009054906101000a900460ff169050919050565b610235838383610825565b505050565b6102443382610a6b565b610283576040517f08c379a000000000000000000000000000000000000000000000000000000000815260040161027a906110f0565b60405180910390fd5b61028c81610b38565b50565b81341461029b57600080fd5b600073ffffffffffffffffffffffffffffffffffffffff168373ffffffffffffffffffffffffffffffffffffffff16141561030b576040517f08c379a000000000000000000000000000000000000000000000000000000000815260040161030290611182565b60405180910390fd5b8373ffffffffffffffffffffffffffffffffffffffff1661032b8261051f565b73ffffffffffffffffffffffffffffffffffffffff1614610381576040517f08c379a000000000000000000000000000000000000000000000000000000000815260040161037890611214565b60405180910390fd5b6001600260008673ffffffffffffffffffffffffffffffffffffffff1673ffffffffffffffffffffffffffffffffffffffff16815260200190815260200160002060008282546103d19190611263565b925050819055506001600260008573ffffffffffffffffffffffffffffffffffffffff1673ffffffffffffffffffffffffffffffffffffffff16815260200190815260200160002060008282546104289190611297565b92505081905550826001600083815260200190815260200160002060006101000a81548173ffffffffffffffffffffffffffffffffffffffff021916908373ffffffffffffffffffffffffffffffffffffffff160217905550808473ffffffffffffffffffffffffffffffffffffffff167fa082022e93cfcd9f1da5f9236718053910f7e840da080c789c7845698dc032ff85856040516104ca9291906112fc565b60405180910390a38273ffffffffffffffffffffffffffffffffffffffff166108fc839081150290604051600060405180830381858888f19350505050158015610518573d6000803e3d6000fd5b5050505050565b6000806001600084815260200190815260200160002060009054906101000a900473ffffffffffffffffffffffffffffffffffffffff169050600073ffffffffffffffffffffffffffffffffffffffff168173ffffffffffffffffffffffffffffffffffffffff1614156105c8576040517f08c379a00000000000000000000000000000000000000000000000000000000081526004016105bf90611371565b60405180910390fd5b80915050919050565b60008073ffffffffffffffffffffffffffffffffffffffff168273ffffffffffffffffffffffffffffffffffffffff161415610642576040517f08c379a000000000000000000000000000000000000000000000000000000000815260040161063990611371565b60405180910390fd5b600260008373ffffffffffffffffffffffffffffffffffffffff1673ffffffffffffffffffffffffffffffffffffffff168152602001908152602001600020549050919050565b60006106948261051f565b90508073ffffffffffffffffffffffffffffffffffffffff168373ffffffffffffffffffffffffffffffffffffffff161415610705576040517f08c379a00000000000000000000000000000000000000000000000000000000081526004016106fc906113dd565b60405180910390fd5b3373ffffffffffffffffffffffffffffffffffffffff168173ffffffffffffffffffffffffffffffffffffffff1614610773576040517f08c379a000000000000000000000000000000000000000000000000000000000815260040161076a90611449565b60405180910390fd5b826003600084815260200190815260200160002060006101000a81548173ffffffffffffffffffffffffffffffffffffffff021916908373ffffffffffffffffffffffffffffffffffffffff160217905550818373ffffffffffffffffffffffffffffffffffffffff168273ffffffffffffffffffffffffffffffffffffffff167f26163b36b8c330072c04a0a1b97cad1d2aaceabade81788f1ab6cf1eef0c66cc60405160405180910390a4505050565b600073ffffffffffffffffffffffffffffffffffffffff168273ffffffffffffffffffffffffffffffffffffffff161415610895576040517f08c379a000000000000000000000000000000000000000000000000000000000815260040161088c90611182565b60405180910390fd5b8273ffffffffffffffffffffffffffffffffffffffff166108b58261051f565b73ffffffffffffffffffffffffffffffffffffffff161461090b576040517f08c379a000000000000000000000000000000000000000000000000000000000815260040161090290611214565b60405180910390fd5b6001600260008573ffffffffffffffffffffffffffffffffffffffff1673ffffffffffffffffffffffffffffffffffffffff168152602001908152602001600020600082825461095b9190611263565b925050819055506001600260008473ffffffffffffffffffffffffffffffffffffffff1673ffffffffffffffffffffffffffffffffffffffff16815260200190815260200160002060008282546109b29190611297565b92505081905550816001600083815260200190815260200160002060006101000a81548173ffffffffffffffffffffffffffffffffffffffff021916908373ffffffffffffffffffffffffffffffffffffffff160217905550808273ffffffffffffffffffffffffffffffffffffffff168473ffffffffffffffffffffffffffffffffffffffff167fddf252ad1be2c89b69c2b068fc378daa952ba7f163c4a11628f55a4df523b3ef60405160405180910390a4505050565b6000610a7682610c3c565b610ab5576040517f08c379a0000000000000000000000000000000000000000000000000000000008152600401610aac906114b5565b60405180910390fd5b6000610ac08361051f565b90508073ffffffffffffffffffffffffffffffffffffffff168473ffffffffffffffffffffffffffffffffffffffff161480610b2f57508373ffffffffffffffffffffffffffffffffffffffff16610b1784610cae565b73ffffffffffffffffffffffffffffffffffffffff16145b91505092915050565b6000610b438261051f565b9050610b4e82610cae565b506001600260008373ffffffffffffffffffffffffffffffffffffffff1673ffffffffffffffffffffffffffffffffffffffff1681526020019081526020016000206000828254610b9f9190611263565b925050819055506001600083815260200190815260200160002060006101000a81549073ffffffffffffffffffffffffffffffffffffffff021916905581600073ffffffffffffffffffffffffffffffffffffffff168273ffffffffffffffffffffffffffffffffffffffff167fddf252ad1be2c89b69c2b068fc378daa952ba7f163c4a11628f55a4df523b3ef60405160405180910390a45050565b6000806001600084815260200190815260200160002060009054906101000a900473ffffffffffffffffffffffffffffffffffffffff169050600073ffffffffffffffffffffffffffffffffffffffff168173ffffffffffffffffffffffffffffffffffffffff161415915050919050565b6000610cb98261051f565b73ffffffffffffffffffffffffffffffffffffffff166001600084815260200190815260200160002060009054906101000a900473ffffffffffffffffffffffffffffffffffffffff1673ffffffffffffffffffffffffffffffffffffffff1614610d2357600080fd5b610d2c8261051f565b9050919050565b600080fd5b60007fffffffff0000000000000000000000000000000000000000000000000000000082169050919050565b610d6d81610d38565b8114610d7857600080fd5b50565b600081359050610d8a81610d64565b92915050565b600060208284031215610da657610da5610d33565b5b6000610db484828501610d7b565b91505092915050565b60008115159050919050565b610dd281610dbd565b82525050565b6000602082019050610ded6000830184610dc9565b92915050565b600073ffffffffffffffffffffffffffffffffffffffff82169050919050565b6000610e1e82610df3565b9050919050565b610e2e81610e13565b8114610e3957600080fd5b50565b600081359050610e4b81610e25565b92915050565b6000819050919050565b610e6481610e51565b8114610e6f57600080fd5b50565b600081359050610e8181610e5b565b92915050565b600080600060608486031215610ea057610e9f610d33565b5b6000610eae86828701610e3c565b9350506020610ebf86828701610e3c565b9250506040610ed086828701610e72565b9150509250925092565b600060208284031215610ef057610eef610d33565b5b6000610efe84828501610e72565b91505092915050565b6000610f1282610df3565b9050919050565b610f2281610f07565b8114610f2d57600080fd5b50565b600081359050610f3f81610f19565b92915050565b60008060008060808587031215610f5f57610f5e610d33565b5b6000610f6d87828801610e3c565b9450506020610f7e87828801610f30565b9350506040610f8f87828801610e72565b9250506060610fa087828801610e72565b91505092959194509250565b610fb581610e13565b82525050565b6000602082019050610fd06000830184610fac565b92915050565b600060208284031215610fec57610feb610d33565b5b6000610ffa84828501610e3c565b91505092915050565b61100c81610e51565b82525050565b60006020820190506110276000830184611003565b92915050565b6000806040838503121561104457611043610d33565b5b600061105285828601610e3c565b925050602061106385828601610e72565b9150509250929050565b600082825260208201905092915050565b7f4552433732314275726e61626c653a2063616c6c6572206973206e6f74206f7760008201527f6e6572206e6f7220617070726f76656400000000000000000000000000000000602082015250565b60006110da60308361106d565b91506110e58261107e565b604082019050919050565b60006020820190508181036000830152611109816110cd565b9050919050565b7f6572726f7220746f207472616e7366657220746f206365726f2061646472657360008201527f7300000000000000000000000000000000000000000000000000000000000000602082015250565b600061116c60218361106d565b915061117782611110565b604082019050919050565b6000602082019050818103600083015261119b8161115f565b9050919050565b7f547279696e6720746f207472616e73666572206120746f6b656e20612074686560008201527f206164647265737320646f6573206e6f74206f776e2100000000000000000000602082015250565b60006111fe60368361106d565b9150611209826111a2565b604082019050919050565b6000602082019050818103600083015261122d816111f1565b9050919050565b7f4e487b7100000000000000000000000000000000000000000000000000000000600052601160045260246000fd5b600061126e82610e51565b915061127983610e51565b92508282101561128c5761128b611234565b5b828203905092915050565b60006112a282610e51565b91506112ad83610e51565b9250827fffffffffffffffffffffffffffffffffffffffffffffffffffffffffffffffff038211156112e2576112e1611234565b5b828201905092915050565b6112f681610f07565b82525050565b600060408201905061131160008301856112ed565b61131e6020830184611003565b9392505050565b7f7468652061646472657373206e6f7420636f756c6420626520626c616e6b0000600082015250565b600061135b601e8361106d565b915061136682611325565b602082019050919050565b6000602082019050818103600083015261138a8161134e565b9050919050565b7f617070726f76616c20746f2063757272656e74206f776e657200000000000000600082015250565b60006113c760198361106d565b91506113d282611391565b602082019050919050565b600060208201905081810360008301526113f6816113ba565b9050919050565b7f63757272656e742063616c6c6572206973206e6f7420746865206f776e657200600082015250565b6000611433601f8361106d565b915061143e826113fd565b602082019050919050565b6000602082019050818103600083015261146281611426565b9050919050565b7f746865736520746f6b656e20646f6e2774206578697374000000000000000000600082015250565b600061149f60178361106d565b91506114aa82611469565b602082019050919050565b600060208201905081810360008301526114ce81611492565b905091905056fea2646970667358221220893bb6efbc1fbee63238fb2a81107c7cd042fd2eac98fd52b5a5fbe91962a41d64736f6c634300080b0033",
  "immutableReferences": {},
  "source": "// SPDX-License-Identifier: MIT\r\npragma solidity ^0.8.0;\r\n\r\nimport \"./ERC165.sol\";\r\n\r\nimport './interfaces/IERC721.sol';\r\n\r\nimport './SafeMath.sol';\r\n\r\ncontract ERC721 is ERC165, IERC721{\r\n    \r\n    using SafeMath for uint256;\r\n    \r\n    mapping (uint256=>address) private _tokenOwner; //these mapping asign a number an any account\r\n    mapping (address=>uint) private _OwnedTokensCount; //these mapping register the number of token assigned of an address\r\n    mapping (uint256=>address) private _tokenApprovals; //approve a token.\r\n\r\n    constructor() {\r\n        _registerInterfaces(bytes4(keccak256('balanceOf(bytes4)')\r\n        ^keccak256('ownerOf(bytes4)')^keccak256('transferFrom(bytes4)')));\r\n    }\r\n\r\n    struct pucharse{\r\n        address _from;\r\n        string name;\r\n        uint amount;\r\n        string description;\r\n        uint _tokenId; \r\n        address _to;\r\n        address owner;\r\n    \r\n    }\r\n\r\n\r\n\r\n\r\n    //these function is used for know the number of NFT than a person have.\r\n    function balanceOf(address _owner) public view override returns(uint256){\r\n        require(_owner!=address(0),'the address not could be blank');\r\n        return _OwnedTokensCount[_owner];\r\n    }\r\n\r\n    //obtain the owner address of nft published\r\n    function ownerOf(uint _tokenId)public view override returns(address){\r\n        address owner= _tokenOwner[_tokenId];\r\n        require(owner!=address(0),'the address not could be blank');\r\n        return owner;\r\n    }\r\n\r\n    //these funcion is for evit repit the same NFT could be published\r\n    function _exists (uint256 tokenId)internal view returns(bool){\r\n        //setting the addres of nft owner to check the mapping\r\n        //of the addres from tokenOwner at the tokenId\r\n        address owner=_tokenOwner[tokenId];\r\n        //return truthiness than addres is not zero.\r\n        return owner != address(0);\r\n\r\n    }\r\n    function _mint(address to, uint256 tokenId)internal virtual{\r\n        //requiere que la direccion no este vacia \r\n        require(to !=address(0), 'ERC721: minting to the zero addres');\r\n        //se asegura de que el token no haya sido minado\r\n        require(!_exists(tokenId));\r\n        _tokenOwner[tokenId]= to;\r\n        _OwnedTokensCount[to]+=1; \r\n\r\n        emit Transfer(address(0), to, tokenId);\r\n\r\n    }\r\n\r\n    // @notice Transfer ownership of an NFT -- THE CALLER IS RESPONSIBLE\r\n    //  TO CONFIRM THAT `_to` IS CAPABLE OF RECEIVING NFTS OR ELSE\r\n    ///  THEY MAY BE PERMANENTLY LOST\r\n    // @dev Throws unless `msg.sender` is the current owner, an authorized\r\n    //  operator, or the approved address for this NFT. Throws if `_from` is\r\n    ///  not the current owner. Throws if `_to` is the zero address. Throws if\r\n    ///  `_tokenId` is not a valid NFT.\r\n    // @param _from The current owner of the NFT\r\n    // @param _to The new owner\r\n    // @param _tokenId The NFT to transfer\r\n    function _transferFrom(address _from, address _to, uint256 _tokenId) internal {\r\n        require(_to!=address(0),\"error to transfer to cero address\");\r\n        require(ownerOf(_tokenId)==_from, \"Trying to transfer a token a the address does not own!\");\r\n        _OwnedTokensCount[_from]-=1;\r\n        _OwnedTokensCount[_to]+=1;\r\n        _tokenOwner[_tokenId]=_to;\r\n        emit Transfer(_from, _to, _tokenId);\r\n                \r\n    }\r\n    function transferFrom(address _from, address _to, uint256 _tokenId) override public {\r\n        _transferFrom(_from, _to, _tokenId);\r\n    }\r\n\r\n    function SellNFT(address _from, address payable _to, uint _amount, uint256 _tokenId) public payable{\r\n        require(msg.value==_amount);\r\n        require(_to!=address(0),\"error to transfer to cero address\");\r\n        require(ownerOf(_tokenId)==_from, \"Trying to transfer a token a the address does not own!\");\r\n\r\n        _OwnedTokensCount[_from]-=1;\r\n        _OwnedTokensCount[_to]+=1;\r\n        _tokenOwner[_tokenId]=_to;\r\n\r\n        emit Sell(_from, _to, _amount, _tokenId);\r\n        \r\n        _to.transfer(_amount);\r\n\r\n\r\n    }\r\n\r\n\r\n    function approval(address _to, uint256 _tokenId) public {\r\n\r\n        address owner= ownerOf(_tokenId);\r\n        require(_to!=owner,'approval to current owner');\r\n        require(owner==msg.sender, 'current caller is not the owner');\r\n        _tokenApprovals[_tokenId]=_to;\r\n\r\n        emit Approvals(owner, _to, _tokenId);\r\n\r\n    }\r\n    function isApprovedOrOwner(address spender, uint256 tokenId) internal view returns(bool){\r\n        require(_exists(tokenId),\"these token don't exist\");\r\n        address owner= ownerOf(tokenId);\r\n        return (spender==owner ||getApproved(tokenId)==spender);\r\n    }\r\n\r\n\r\n\r\n    function getApproved(uint256 tokenId) internal view returns(address){\r\n        require(_tokenOwner[tokenId]==ownerOf(tokenId));\r\n        return ownerOf(tokenId);\r\n    }\r\n\r\n    //Funciones adiccionales que no estaban en el curso fueron obtenidas desde los archivos de openzeppelin\r\n\r\n    function _burn(uint256 tokenId) internal virtual {\r\n        address owner = ownerOf(tokenId);\r\n\r\n        // Clear approvals\r\n        getApproved(tokenId);\r\n\r\n        _OwnedTokensCount[owner] -= 1;\r\n        delete _tokenOwner[tokenId];\r\n\r\n        emit Transfer(owner, address(0), tokenId);\r\n\r\n     }\r\n\r\n        function burn(uint256 tokenId) public virtual {\r\n        //solhint-disable-next-line max-line-length\r\n        require(isApprovedOrOwner(msg.sender, tokenId), \"ERC721Burnable: caller is not owner nor approved\");\r\n        _burn(tokenId);\r\n    }\r\n\r\n\r\n    \r\n}",
  "sourcePath": "C:\\Users\\Abraham\\Desktop\\p\\client\\src\\contracts\\ERC721.sol",
  "compiler": {
    "name": "solc",
    "version": "0.8.11+commit.d7f03943.Emscripten.clang"
  },
  "schemaVersion": "3.4.5",
  "updatedAt": "2022-04-20T07:00:03.320Z",
  "devdoc": {
    "kind": "dev",
    "methods": {
      "supportsInterface(bytes4)": {
        "details": "Interface identification is specified in ERC-165. This function  uses less than 30,000 gas.",
        "params": {
          "interfaceID": "The interface identifier, as specified in ERC-165"
        },
        "returns": {
          "_0": "`true` if the contract implements `interfaceID` and  `interfaceID` is not 0xffffffff, `false` otherwise"
        }
      }
    },
    "version": 1
  },
  "userdoc": {
    "kind": "user",
    "methods": {
      "supportsInterface(bytes4)": {
        "notice": "Query if a contract implements an interface"
      }
    },
    "version": 1
  }
}