{
  "contractName": "ERC721Enumerable",
  "abi": [
    {
      "inputs": [],
      "stateMutability": "nonpayable",
      "type": "constructor"
    },
    {
      "anonymous": false,
      "inputs": [
        {
          "indexed": true,
          "internalType": "address",
          "name": "_owner",
          "type": "address"
        },
        {
          "indexed": true,
          "internalType": "address",
          "name": "_approved",
          "type": "address"
        },
        {
          "indexed": true,
          "internalType": "uint256",
          "name": "_tokenId",
          "type": "uint256"
        }
      ],
      "name": "Approvals",
      "type": "event"
    },
    {
      "anonymous": false,
      "inputs": [
        {
          "indexed": true,
          "internalType": "address",
          "name": "_from",
          "type": "address"
        },
        {
          "indexed": false,
          "internalType": "address payable",
          "name": "_to",
          "type": "address"
        },
        {
          "indexed": false,
          "internalType": "uint256",
          "name": "_amount",
          "type": "uint256"
        },
        {
          "indexed": true,
          "internalType": "uint256",
          "name": "_tokenId",
          "type": "uint256"
        }
      ],
      "name": "Sell",
      "type": "event"
    },
    {
      "anonymous": false,
      "inputs": [
        {
          "indexed": true,
          "internalType": "address",
          "name": "_from",
          "type": "address"
        },
        {
          "indexed": true,
          "internalType": "address",
          "name": "_to",
          "type": "address"
        },
        {
          "indexed": true,
          "internalType": "uint256",
          "name": "_tokenId",
          "type": "uint256"
        }
      ],
      "name": "Transfer",
      "type": "event"
    },
    {
      "anonymous": false,
      "inputs": [
        {
          "indexed": true,
          "internalType": "address",
          "name": "_from",
          "type": "address"
        },
        {
          "indexed": true,
          "internalType": "address",
          "name": "_to",
          "type": "address"
        },
        {
          "indexed": true,
          "internalType": "uint256",
          "name": "_tokenId",
          "type": "uint256"
        },
        {
          "indexed": false,
          "internalType": "string",
          "name": "name",
          "type": "string"
        },
        {
          "indexed": false,
          "internalType": "string",
          "name": "description",
          "type": "string"
        }
      ],
      "name": "minting",
      "type": "event"
    },
    {
      "inputs": [
        {
          "internalType": "address",
          "name": "_from",
          "type": "address"
        },
        {
          "internalType": "address payable",
          "name": "_to",
          "type": "address"
        },
        {
          "internalType": "uint256",
          "name": "_amount",
          "type": "uint256"
        },
        {
          "internalType": "uint256",
          "name": "_tokenId",
          "type": "uint256"
        }
      ],
      "name": "SellNFT",
      "outputs": [],
      "stateMutability": "payable",
      "type": "function"
    },
    {
      "inputs": [
        {
          "internalType": "address",
          "name": "_to",
          "type": "address"
        },
        {
          "internalType": "uint256",
          "name": "_tokenId",
          "type": "uint256"
        }
      ],
      "name": "approval",
      "outputs": [],
      "stateMutability": "nonpayable",
      "type": "function"
    },
    {
      "inputs": [
        {
          "internalType": "address",
          "name": "_owner",
          "type": "address"
        }
      ],
      "name": "balanceOf",
      "outputs": [
        {
          "internalType": "uint256",
          "name": "",
          "type": "uint256"
        }
      ],
      "stateMutability": "view",
      "type": "function"
    },
    {
      "inputs": [
        {
          "internalType": "uint256",
          "name": "tokenId",
          "type": "uint256"
        }
      ],
      "name": "burn",
      "outputs": [],
      "stateMutability": "nonpayable",
      "type": "function"
    },
    {
      "inputs": [
        {
          "internalType": "uint256",
          "name": "_tokenId",
          "type": "uint256"
        }
      ],
      "name": "ownerOf",
      "outputs": [
        {
          "internalType": "address",
          "name": "",
          "type": "address"
        }
      ],
      "stateMutability": "view",
      "type": "function"
    },
    {
      "inputs": [
        {
          "internalType": "bytes4",
          "name": "interfaceID",
          "type": "bytes4"
        }
      ],
      "name": "supportsInterface",
      "outputs": [
        {
          "internalType": "bool",
          "name": "",
          "type": "bool"
        }
      ],
      "stateMutability": "view",
      "type": "function"
    },
    {
      "inputs": [
        {
          "internalType": "address",
          "name": "_from",
          "type": "address"
        },
        {
          "internalType": "address",
          "name": "_to",
          "type": "address"
        },
        {
          "internalType": "uint256",
          "name": "_tokenId",
          "type": "uint256"
        }
      ],
      "name": "transferFrom",
      "outputs": [],
      "stateMutability": "nonpayable",
      "type": "function"
    },
    {
      "inputs": [
        {
          "internalType": "uint256",
          "name": "index",
          "type": "uint256"
        }
      ],
      "name": "tokenByIndex",
      "outputs": [
        {
          "internalType": "uint256",
          "name": "",
          "type": "uint256"
        }
      ],
      "stateMutability": "view",
      "type": "function"
    },
    {
      "inputs": [
        {
          "internalType": "address",
          "name": "owner",
          "type": "address"
        },
        {
          "internalType": "uint256",
          "name": "index",
          "type": "uint256"
        }
      ],
      "name": "tokenOfOwnerByIndex",
      "outputs": [
        {
          "internalType": "uint256",
          "name": "",
          "type": "uint256"
        }
      ],
      "stateMutability": "view",
      "type": "function"
    },
    {
      "inputs": [],
      "name": "totalSupply",
      "outputs": [
        {
          "internalType": "uint256",
          "name": "",
          "type": "uint256"
        }
      ],
      "stateMutability": "view",
      "type": "function"
    }
  ],
  "bytecode": "0x60806040523480156200001157600080fd5b50620000437f1584ba3821f2482cfd183eacb8962ebf3b6b7785a696f73fa327cc1d1b8847ba6200013360201b60201c565b620000b87f22c82707ba960a14c7592ffb6b8cfaa073fed0048a84cc7fa41f6b5bd8e7f2e47f3a6eb71757dfc6e784c1459d26270140c2c147d95ca985c80026fc5301c3eca17f8a7e378434598edc36d108689a030cbc9d7d465de4f74c71bae1028eed6a881b18186200013360201b60201c565b6200012d7f8230223f691b981717299fae9549350a0d894555723531f02108b1f522c1a7977f6da5e1284143cdd2d15038a59bde3be031250f00291d64494c12d967b3a4e0c37fc53637662700e6c65104059db8bba34439e0c32483ab7c34e3ccae52c739549518186200013360201b60201c565b6200028e565b63ffffffff60e01b817bffffffffffffffffffffffffffffffffffffffffffffffffffffffff191614156200019f576040517f08c379a000000000000000000000000000000000000000000000000000000000815260040162000196906200026c565b60405180910390fd5b6001600080837bffffffffffffffffffffffffffffffffffffffffffffffffffffffff19167bffffffffffffffffffffffffffffffffffffffffffffffffffffffff1916815260200190815260200160002060006101000a81548160ff02191690831515021790555050565b600082825260208201905092915050565b7f696e76616c696420696e74657266616365207265717565737400000000000000600082015250565b6000620002546019836200020b565b915062000261826200021c565b602082019050919050565b60006020820190508181036000830152620002878162000245565b9050919050565b61179a806200029e6000396000f3fe6080604052600436106100915760003560e01c80634f6ccce7116100595780634f6ccce71461018d57806350d99092146101ca5780636352211e146101e657806370a082311461022357806375247a581461026057610091565b806301ffc9a71461009657806318160ddd146100d357806323b872dd146100fe5780632f745c591461012757806342966c6814610164575b600080fd5b3480156100a257600080fd5b506100bd60048036038101906100b89190610f84565b610289565b6040516100ca9190610fcc565b60405180910390f35b3480156100df57600080fd5b506100e86102f0565b6040516100f59190611000565b60405180910390f35b34801561010a57600080fd5b50610125600480360381019061012091906110a5565b6102fd565b005b34801561013357600080fd5b5061014e600480360381019061014991906110f8565b61030d565b60405161015b9190611000565b60405180910390f35b34801561017057600080fd5b5061018b60048036038101906101869190611138565b6103bd565b005b34801561019957600080fd5b506101b460048036038101906101af9190611138565b610412565b6040516101c19190611000565b60405180910390f35b6101e460048036038101906101df91906111a3565b610483565b005b3480156101f257600080fd5b5061020d60048036038101906102089190611138565b610713565b60405161021a9190611219565b60405180910390f35b34801561022f57600080fd5b5061024a60048036038101906102459190611234565b6107c5565b6040516102579190611000565b60405180910390f35b34801561026c57600080fd5b50610287600480360381019061028291906110f8565b61087d565b005b6000806000837bffffffffffffffffffffffffffffffffffffffffffffffffffffffff19167bffffffffffffffffffffffffffffffffffffffffffffffffffffffff1916815260200190815260200160002060009054906101000a900460ff169050919050565b6000600480549050905090565b610308838383610a19565b505050565b6000610318836107c5565b8210610359576040517f08c379a0000000000000000000000000000000000000000000000000000000008152600401610350906112be565b60405180910390fd5b600660008473ffffffffffffffffffffffffffffffffffffffff1673ffffffffffffffffffffffffffffffffffffffff16815260200190815260200160002082815481106103aa576103a96112de565b5b9060005260206000200154905092915050565b6103c73382610c5f565b610406576040517f08c379a00000000000000000000000000000000000000000000000000000000081526004016103fd9061137f565b60405180910390fd5b61040f81610d2c565b50565b600061041c6102f0565b821061045d576040517f08c379a0000000000000000000000000000000000000000000000000000000008152600401610454906112be565b60405180910390fd5b60048281548110610471576104706112de565b5b90600052602060002001549050919050565b81341461048f57600080fd5b600073ffffffffffffffffffffffffffffffffffffffff168373ffffffffffffffffffffffffffffffffffffffff1614156104ff576040517f08c379a00000000000000000000000000000000000000000000000000000000081526004016104f690611411565b60405180910390fd5b8373ffffffffffffffffffffffffffffffffffffffff1661051f82610713565b73ffffffffffffffffffffffffffffffffffffffff1614610575576040517f08c379a000000000000000000000000000000000000000000000000000000000815260040161056c906114a3565b60405180910390fd5b6001600260008673ffffffffffffffffffffffffffffffffffffffff1673ffffffffffffffffffffffffffffffffffffffff16815260200190815260200160002060008282546105c591906114f2565b925050819055506001600260008573ffffffffffffffffffffffffffffffffffffffff1673ffffffffffffffffffffffffffffffffffffffff168152602001908152602001600020600082825461061c9190611526565b92505081905550826001600083815260200190815260200160002060006101000a81548173ffffffffffffffffffffffffffffffffffffffff021916908373ffffffffffffffffffffffffffffffffffffffff160217905550808473ffffffffffffffffffffffffffffffffffffffff167fa082022e93cfcd9f1da5f9236718053910f7e840da080c789c7845698dc032ff85856040516106be92919061158b565b60405180910390a38273ffffffffffffffffffffffffffffffffffffffff166108fc839081150290604051600060405180830381858888f1935050505015801561070c573d6000803e3d6000fd5b5050505050565b6000806001600084815260200190815260200160002060009054906101000a900473ffffffffffffffffffffffffffffffffffffffff169050600073ffffffffffffffffffffffffffffffffffffffff168173ffffffffffffffffffffffffffffffffffffffff1614156107bc576040517f08c379a00000000000000000000000000000000000000000000000000000000081526004016107b390611600565b60405180910390fd5b80915050919050565b60008073ffffffffffffffffffffffffffffffffffffffff168273ffffffffffffffffffffffffffffffffffffffff161415610836576040517f08c379a000000000000000000000000000000000000000000000000000000000815260040161082d90611600565b60405180910390fd5b600260008373ffffffffffffffffffffffffffffffffffffffff1673ffffffffffffffffffffffffffffffffffffffff168152602001908152602001600020549050919050565b600061088882610713565b90508073ffffffffffffffffffffffffffffffffffffffff168373ffffffffffffffffffffffffffffffffffffffff1614156108f9576040517f08c379a00000000000000000000000000000000000000000000000000000000081526004016108f09061166c565b60405180910390fd5b3373ffffffffffffffffffffffffffffffffffffffff168173ffffffffffffffffffffffffffffffffffffffff1614610967576040517f08c379a000000000000000000000000000000000000000000000000000000000815260040161095e906116d8565b60405180910390fd5b826003600084815260200190815260200160002060006101000a81548173ffffffffffffffffffffffffffffffffffffffff021916908373ffffffffffffffffffffffffffffffffffffffff160217905550818373ffffffffffffffffffffffffffffffffffffffff168273ffffffffffffffffffffffffffffffffffffffff167f26163b36b8c330072c04a0a1b97cad1d2aaceabade81788f1ab6cf1eef0c66cc60405160405180910390a4505050565b600073ffffffffffffffffffffffffffffffffffffffff168273ffffffffffffffffffffffffffffffffffffffff161415610a89576040517f08c379a0000000000000000000000000000000000000000000000000000000008152600401610a8090611411565b60405180910390fd5b8273ffffffffffffffffffffffffffffffffffffffff16610aa982610713565b73ffffffffffffffffffffffffffffffffffffffff1614610aff576040517f08c379a0000000000000000000000000000000000000000000000000000000008152600401610af6906114a3565b60405180910390fd5b6001600260008573ffffffffffffffffffffffffffffffffffffffff1673ffffffffffffffffffffffffffffffffffffffff1681526020019081526020016000206000828254610b4f91906114f2565b925050819055506001600260008473ffffffffffffffffffffffffffffffffffffffff1673ffffffffffffffffffffffffffffffffffffffff1681526020019081526020016000206000828254610ba69190611526565b92505081905550816001600083815260200190815260200160002060006101000a81548173ffffffffffffffffffffffffffffffffffffffff021916908373ffffffffffffffffffffffffffffffffffffffff160217905550808273ffffffffffffffffffffffffffffffffffffffff168473ffffffffffffffffffffffffffffffffffffffff167fddf252ad1be2c89b69c2b068fc378daa952ba7f163c4a11628f55a4df523b3ef60405160405180910390a4505050565b6000610c6a82610e30565b610ca9576040517f08c379a0000000000000000000000000000000000000000000000000000000008152600401610ca090611744565b60405180910390fd5b6000610cb483610713565b90508073ffffffffffffffffffffffffffffffffffffffff168473ffffffffffffffffffffffffffffffffffffffff161480610d2357508373ffffffffffffffffffffffffffffffffffffffff16610d0b84610ea2565b73ffffffffffffffffffffffffffffffffffffffff16145b91505092915050565b6000610d3782610713565b9050610d4282610ea2565b506001600260008373ffffffffffffffffffffffffffffffffffffffff1673ffffffffffffffffffffffffffffffffffffffff1681526020019081526020016000206000828254610d9391906114f2565b925050819055506001600083815260200190815260200160002060006101000a81549073ffffffffffffffffffffffffffffffffffffffff021916905581600073ffffffffffffffffffffffffffffffffffffffff168273ffffffffffffffffffffffffffffffffffffffff167fddf252ad1be2c89b69c2b068fc378daa952ba7f163c4a11628f55a4df523b3ef60405160405180910390a45050565b6000806001600084815260200190815260200160002060009054906101000a900473ffffffffffffffffffffffffffffffffffffffff169050600073ffffffffffffffffffffffffffffffffffffffff168173ffffffffffffffffffffffffffffffffffffffff161415915050919050565b6000610ead82610713565b73ffffffffffffffffffffffffffffffffffffffff166001600084815260200190815260200160002060009054906101000a900473ffffffffffffffffffffffffffffffffffffffff1673ffffffffffffffffffffffffffffffffffffffff1614610f1757600080fd5b610f2082610713565b9050919050565b600080fd5b60007fffffffff0000000000000000000000000000000000000000000000000000000082169050919050565b610f6181610f2c565b8114610f6c57600080fd5b50565b600081359050610f7e81610f58565b92915050565b600060208284031215610f9a57610f99610f27565b5b6000610fa884828501610f6f565b91505092915050565b60008115159050919050565b610fc681610fb1565b82525050565b6000602082019050610fe16000830184610fbd565b92915050565b6000819050919050565b610ffa81610fe7565b82525050565b60006020820190506110156000830184610ff1565b92915050565b600073ffffffffffffffffffffffffffffffffffffffff82169050919050565b60006110468261101b565b9050919050565b6110568161103b565b811461106157600080fd5b50565b6000813590506110738161104d565b92915050565b61108281610fe7565b811461108d57600080fd5b50565b60008135905061109f81611079565b92915050565b6000806000606084860312156110be576110bd610f27565b5b60006110cc86828701611064565b93505060206110dd86828701611064565b92505060406110ee86828701611090565b9150509250925092565b6000806040838503121561110f5761110e610f27565b5b600061111d85828601611064565b925050602061112e85828601611090565b9150509250929050565b60006020828403121561114e5761114d610f27565b5b600061115c84828501611090565b91505092915050565b60006111708261101b565b9050919050565b61118081611165565b811461118b57600080fd5b50565b60008135905061119d81611177565b92915050565b600080600080608085870312156111bd576111bc610f27565b5b60006111cb87828801611064565b94505060206111dc8782880161118e565b93505060406111ed87828801611090565b92505060606111fe87828801611090565b91505092959194509250565b6112138161103b565b82525050565b600060208201905061122e600083018461120a565b92915050565b60006020828403121561124a57611249610f27565b5b600061125884828501611064565b91505092915050565b600082825260208201905092915050565b7f676c6f62616c20696e646578206973206f7574206f6620626f756e6473210000600082015250565b60006112a8601e83611261565b91506112b382611272565b602082019050919050565b600060208201905081810360008301526112d78161129b565b9050919050565b7f4e487b7100000000000000000000000000000000000000000000000000000000600052603260045260246000fd5b7f4552433732314275726e61626c653a2063616c6c6572206973206e6f74206f7760008201527f6e6572206e6f7220617070726f76656400000000000000000000000000000000602082015250565b6000611369603083611261565b91506113748261130d565b604082019050919050565b600060208201905081810360008301526113988161135c565b9050919050565b7f6572726f7220746f207472616e7366657220746f206365726f2061646472657360008201527f7300000000000000000000000000000000000000000000000000000000000000602082015250565b60006113fb602183611261565b91506114068261139f565b604082019050919050565b6000602082019050818103600083015261142a816113ee565b9050919050565b7f547279696e6720746f207472616e73666572206120746f6b656e20612074686560008201527f206164647265737320646f6573206e6f74206f776e2100000000000000000000602082015250565b600061148d603683611261565b915061149882611431565b604082019050919050565b600060208201905081810360008301526114bc81611480565b9050919050565b7f4e487b7100000000000000000000000000000000000000000000000000000000600052601160045260246000fd5b60006114fd82610fe7565b915061150883610fe7565b92508282101561151b5761151a6114c3565b5b828203905092915050565b600061153182610fe7565b915061153c83610fe7565b9250827fffffffffffffffffffffffffffffffffffffffffffffffffffffffffffffffff03821115611571576115706114c3565b5b828201905092915050565b61158581611165565b82525050565b60006040820190506115a0600083018561157c565b6115ad6020830184610ff1565b9392505050565b7f7468652061646472657373206e6f7420636f756c6420626520626c616e6b0000600082015250565b60006115ea601e83611261565b91506115f5826115b4565b602082019050919050565b60006020820190508181036000830152611619816115dd565b9050919050565b7f617070726f76616c20746f2063757272656e74206f776e657200000000000000600082015250565b6000611656601983611261565b915061166182611620565b602082019050919050565b6000602082019050818103600083015261168581611649565b9050919050565b7f63757272656e742063616c6c6572206973206e6f7420746865206f776e657200600082015250565b60006116c2601f83611261565b91506116cd8261168c565b602082019050919050565b600060208201905081810360008301526116f1816116b5565b9050919050565b7f746865736520746f6b656e20646f6e2774206578697374000000000000000000600082015250565b600061172e601783611261565b9150611739826116f8565b602082019050919050565b6000602082019050818103600083015261175d81611721565b905091905056fea2646970667358221220efd8c30e7c40363c499a4f6749242c142dc0d6dbdb7fab7057197c9d6a1c338864736f6c634300080b0033",
  "immutableReferences": {},
  "source": "// SPDX-License-Identifier: MIT\r\npragma solidity ^0.8.0;\r\n\r\nimport \"./ERC721.sol\";\r\nimport './interfaces/IEC721Enumerable.sol';\r\ncontract ERC721Enumerable is ERC721, IERC721Enumerable{\r\n\r\n    uint256[] private _allTokens;\r\n\r\n\r\n    //mapping from TokenId to possition _alltokens\r\n    mapping(uint256=>uint256) private _allTokensIndex;\r\n\r\n    //mapping of owner to list of all owner token ids\r\n    mapping(address=>uint256[]) private _ownedTokens;\r\n\r\n    //mapping from token ID index of owner token list\r\n    mapping(uint256=>uint256) private _ownedTokensIndex;\r\n\r\n\r\n\r\n\r\n    constructor() {\r\n        _registerInterfaces(bytes4(keccak256('totalSupply(bytes4)')\r\n        ^keccak256('tokenByIndex(bytes4)')^keccak256('tokenOfOwnerByIndex(bytes4)')));\r\n    }\r\n\r\n\r\n    //these function is used for create a list assosiate the owner with yours personal tokens and the complete list of tokens en \r\n    //the page\r\n    function _mint(address to, uint256 tokenId) internal override(ERC721){\r\n        super._mint(to, tokenId);\r\n\r\n        _addTokenToTokenEnumeration(tokenId);\r\n        _addtokensToOwnerEnumeration(to, tokenId);\r\n \r\n    }\r\n\r\n    //these function is used for add the new token to the index.\r\n    function _addTokenToTokenEnumeration(uint256 tokenId) private {\r\n        \r\n        _allTokensIndex[tokenId]=_allTokens.length;\r\n        _allTokens.push(tokenId);\r\n\r\n    }\r\n\r\n\r\n\r\n    function tokenByIndex(uint256 index) public override view returns(uint256){\r\n        require(index<totalSupply(), 'global index is out of bounds!');\r\n        return _allTokens[index];\r\n    }\r\n\r\n    //relationship the owner with your token's\r\n    function tokenOfOwnerByIndex(address owner, uint256 index) public override view returns(uint256){\r\n        require(index<balanceOf(owner), 'global index is out of bounds!');\r\n        return _ownedTokens[owner][index];\r\n    }\r\n\r\n    //thes function is used for know the number of token associated to address\r\n    function _addtokensToOwnerEnumeration (address to, uint256 tokenId) private{\r\n        \r\n        _ownedTokensIndex[tokenId]=_ownedTokens[to].length;\r\n        _ownedTokens[to].push(tokenId);\r\n\r\n    }\r\n\r\n    function totalSupply() public override view returns(uint256){\r\n        return _allTokens.length;\r\n    }\r\n\r\n}",
  "sourcePath": "C:\\Users\\Abraham\\Desktop\\p\\client\\src\\contracts\\ERC721Enumerable.sol",
  "compiler": {
    "name": "solc",
    "version": "0.8.11+commit.d7f03943.Emscripten.clang"
  },
  "schemaVersion": "3.4.5",
  "updatedAt": "2022-04-20T07:00:03.364Z",
  "devdoc": {
    "kind": "dev",
    "methods": {
      "supportsInterface(bytes4)": {
        "details": "Interface identification is specified in ERC-165. This function  uses less than 30,000 gas.",
        "params": {
          "interfaceID": "The interface identifier, as specified in ERC-165"
        },
        "returns": {
          "_0": "`true` if the contract implements `interfaceID` and  `interfaceID` is not 0xffffffff, `false` otherwise"
        }
      }
    },
    "version": 1
  },
  "userdoc": {
    "kind": "user",
    "methods": {
      "supportsInterface(bytes4)": {
        "notice": "Query if a contract implements an interface"
      }
    },
    "version": 1
  }
}