{
  "contractName": "KryptoBird",
  "abi": [
    {
      "inputs": [],
      "stateMutability": "nonpayable",
      "type": "constructor"
    },
    {
      "anonymous": false,
      "inputs": [
        {
          "indexed": true,
          "internalType": "address",
          "name": "_owner",
          "type": "address"
        },
        {
          "indexed": true,
          "internalType": "address",
          "name": "_approved",
          "type": "address"
        },
        {
          "indexed": true,
          "internalType": "uint256",
          "name": "_tokenId",
          "type": "uint256"
        }
      ],
      "name": "Approvals",
      "type": "event"
    },
    {
      "anonymous": false,
      "inputs": [
        {
          "indexed": true,
          "internalType": "address",
          "name": "_from",
          "type": "address"
        },
        {
          "indexed": false,
          "internalType": "address payable",
          "name": "_to",
          "type": "address"
        },
        {
          "indexed": false,
          "internalType": "uint256",
          "name": "_amount",
          "type": "uint256"
        },
        {
          "indexed": true,
          "internalType": "uint256",
          "name": "_tokenId",
          "type": "uint256"
        }
      ],
      "name": "Sell",
      "type": "event"
    },
    {
      "anonymous": false,
      "inputs": [
        {
          "indexed": true,
          "internalType": "address",
          "name": "_from",
          "type": "address"
        },
        {
          "indexed": true,
          "internalType": "address",
          "name": "_to",
          "type": "address"
        },
        {
          "indexed": true,
          "internalType": "uint256",
          "name": "_tokenId",
          "type": "uint256"
        }
      ],
      "name": "Transfer",
      "type": "event"
    },
    {
      "anonymous": false,
      "inputs": [
        {
          "indexed": true,
          "internalType": "address",
          "name": "_from",
          "type": "address"
        },
        {
          "indexed": true,
          "internalType": "address",
          "name": "_to",
          "type": "address"
        },
        {
          "indexed": true,
          "internalType": "uint256",
          "name": "_tokenId",
          "type": "uint256"
        },
        {
          "indexed": false,
          "internalType": "string",
          "name": "name",
          "type": "string"
        },
        {
          "indexed": false,
          "internalType": "string",
          "name": "description",
          "type": "string"
        }
      ],
      "name": "minting",
      "type": "event"
    },
    {
      "inputs": [
        {
          "internalType": "address",
          "name": "_from",
          "type": "address"
        },
        {
          "internalType": "address payable",
          "name": "_to",
          "type": "address"
        },
        {
          "internalType": "uint256",
          "name": "_amount",
          "type": "uint256"
        },
        {
          "internalType": "uint256",
          "name": "_tokenId",
          "type": "uint256"
        }
      ],
      "name": "SellNFT",
      "outputs": [],
      "stateMutability": "payable",
      "type": "function",
      "payable": true
    },
    {
      "inputs": [
        {
          "internalType": "address",
          "name": "_to",
          "type": "address"
        },
        {
          "internalType": "uint256",
          "name": "_tokenId",
          "type": "uint256"
        }
      ],
      "name": "approval",
      "outputs": [],
      "stateMutability": "nonpayable",
      "type": "function"
    },
    {
      "inputs": [
        {
          "internalType": "address",
          "name": "_owner",
          "type": "address"
        }
      ],
      "name": "balanceOf",
      "outputs": [
        {
          "internalType": "uint256",
          "name": "",
          "type": "uint256"
        }
      ],
      "stateMutability": "view",
      "type": "function",
      "constant": true
    },
    {
      "inputs": [
        {
          "internalType": "uint256",
          "name": "tokenId",
          "type": "uint256"
        }
      ],
      "name": "burn",
      "outputs": [],
      "stateMutability": "nonpayable",
      "type": "function"
    },
    {
      "inputs": [
        {
          "internalType": "uint256",
          "name": "",
          "type": "uint256"
        }
      ],
      "name": "kryptoBirdz",
      "outputs": [
        {
          "internalType": "string",
          "name": "",
          "type": "string"
        }
      ],
      "stateMutability": "view",
      "type": "function",
      "constant": true
    },
    {
      "inputs": [],
      "name": "name",
      "outputs": [
        {
          "internalType": "string",
          "name": "",
          "type": "string"
        }
      ],
      "stateMutability": "view",
      "type": "function",
      "constant": true
    },
    {
      "inputs": [
        {
          "internalType": "uint256",
          "name": "_tokenId",
          "type": "uint256"
        }
      ],
      "name": "ownerOf",
      "outputs": [
        {
          "internalType": "address",
          "name": "",
          "type": "address"
        }
      ],
      "stateMutability": "view",
      "type": "function",
      "constant": true
    },
    {
      "inputs": [
        {
          "internalType": "bytes4",
          "name": "interfaceID",
          "type": "bytes4"
        }
      ],
      "name": "supportsInterface",
      "outputs": [
        {
          "internalType": "bool",
          "name": "",
          "type": "bool"
        }
      ],
      "stateMutability": "view",
      "type": "function",
      "constant": true
    },
    {
      "inputs": [],
      "name": "symbol",
      "outputs": [
        {
          "internalType": "string",
          "name": "",
          "type": "string"
        }
      ],
      "stateMutability": "view",
      "type": "function",
      "constant": true
    },
    {
      "inputs": [
        {
          "internalType": "uint256",
          "name": "index",
          "type": "uint256"
        }
      ],
      "name": "tokenByIndex",
      "outputs": [
        {
          "internalType": "uint256",
          "name": "",
          "type": "uint256"
        }
      ],
      "stateMutability": "view",
      "type": "function",
      "constant": true
    },
    {
      "inputs": [
        {
          "internalType": "address",
          "name": "owner",
          "type": "address"
        },
        {
          "internalType": "uint256",
          "name": "index",
          "type": "uint256"
        }
      ],
      "name": "tokenOfOwnerByIndex",
      "outputs": [
        {
          "internalType": "uint256",
          "name": "",
          "type": "uint256"
        }
      ],
      "stateMutability": "view",
      "type": "function",
      "constant": true
    },
    {
      "inputs": [],
      "name": "totalSupply",
      "outputs": [
        {
          "internalType": "uint256",
          "name": "",
          "type": "uint256"
        }
      ],
      "stateMutability": "view",
      "type": "function",
      "constant": true
    },
    {
      "inputs": [
        {
          "internalType": "address",
          "name": "_from",
          "type": "address"
        },
        {
          "internalType": "address",
          "name": "_to",
          "type": "address"
        },
        {
          "internalType": "uint256",
          "name": "_tokenId",
          "type": "uint256"
        }
      ],
      "name": "transferFrom",
      "outputs": [],
      "stateMutability": "nonpayable",
      "type": "function"
    },
    {
      "inputs": [
        {
          "internalType": "string",
          "name": "_kryptobirdz",
          "type": "string"
        }
      ],
      "name": "mint",
      "outputs": [],
      "stateMutability": "nonpayable",
      "type": "function"
    }
  ],
  "bytecode": "0x60806040523480156200001157600080fd5b506040518060400160405280600a81526020017f4b727970746f42697264000000000000000000000000000000000000000000008152506040518060400160405280600681526020017f4b424952445a00000000000000000000000000000000000000000000000000008152508181620000b17f1584ba3821f2482cfd183eacb8962ebf3b6b7785a696f73fa327cc1d1b8847ba6200024c60201b60201c565b620001267f8230223f691b981717299fae9549350a0d894555723531f02108b1f522c1a7977f6da5e1284143cdd2d15038a59bde3be031250f00291d64494c12d967b3a4e0c37fc53637662700e6c65104059db8bba34439e0c32483ab7c34e3ccae52c739549518186200024c60201b60201c565b81600190805190602001906200013e92919062000324565b5080600290805190602001906200015792919062000324565b505050620001cf7f22c82707ba960a14c7592ffb6b8cfaa073fed0048a84cc7fa41f6b5bd8e7f2e47f3a6eb71757dfc6e784c1459d26270140c2c147d95ca985c80026fc5301c3eca17f8a7e378434598edc36d108689a030cbc9d7d465de4f74c71bae1028eed6a881b18186200024c60201b60201c565b620002447f8230223f691b981717299fae9549350a0d894555723531f02108b1f522c1a7977f6da5e1284143cdd2d15038a59bde3be031250f00291d64494c12d967b3a4e0c37fc53637662700e6c65104059db8bba34439e0c32483ab7c34e3ccae52c739549518186200024c60201b60201c565b5050620004bc565b63ffffffff60e01b817bffffffffffffffffffffffffffffffffffffffffffffffffffffffff19161415620002b8576040517f08c379a0000000000000000000000000000000000000000000000000000000008152600401620002af9062000435565b60405180910390fd5b6001600080837bffffffffffffffffffffffffffffffffffffffffffffffffffffffff19167bffffffffffffffffffffffffffffffffffffffffffffffffffffffff1916815260200190815260200160002060006101000a81548160ff02191690831515021790555050565b828054620003329062000486565b90600052602060002090601f016020900481019282620003565760008555620003a2565b82601f106200037157805160ff1916838001178555620003a2565b82800160010185558215620003a2579182015b82811115620003a157825182559160200191906001019062000384565b5b509050620003b19190620003b5565b5090565b5b80821115620003d0576000816000905550600101620003b6565b5090565b600082825260208201905092915050565b7f696e76616c696420696e74657266616365207265717565737400000000000000600082015250565b60006200041d601983620003d4565b91506200042a82620003e5565b602082019050919050565b6000602082019050818103600083015262000450816200040e565b9050919050565b7f4e487b7100000000000000000000000000000000000000000000000000000000600052602260045260246000fd5b600060028204905060018216806200049f57607f821691505b60208210811415620004b657620004b562000457565b5b50919050565b6122bb80620004cc6000396000f3fe6080604052600436106100dd5760003560e01c806350d990921161007f57806375247a581161005957806375247a58146102d757806393ab6e561461030057806395d89b411461033d578063d85d3d2714610368576100dd565b806350d99092146102415780636352211e1461025d57806370a082311461029a576100dd565b806323b872dd116100bb57806323b872dd146101755780632f745c591461019e57806342966c68146101db5780634f6ccce714610204576100dd565b806301ffc9a7146100e257806306fdde031461011f57806318160ddd1461014a575b600080fd5b3480156100ee57600080fd5b50610109600480360381019061010491906116cb565b610391565b6040516101169190611713565b60405180910390f35b34801561012b57600080fd5b506101346103f8565b60405161014191906117c7565b60405180910390f35b34801561015657600080fd5b5061015f61048a565b60405161016c9190611802565b60405180910390f35b34801561018157600080fd5b5061019c600480360381019061019791906118a7565b610497565b005b3480156101aa57600080fd5b506101c560048036038101906101c091906118fa565b6104a7565b6040516101d29190611802565b60405180910390f35b3480156101e757600080fd5b5061020260048036038101906101fd919061193a565b610557565b005b34801561021057600080fd5b5061022b6004803603810190610226919061193a565b6105ac565b6040516102389190611802565b60405180910390f35b61025b600480360381019061025691906119a5565b61061d565b005b34801561026957600080fd5b50610284600480360381019061027f919061193a565b6108ad565b6040516102919190611a1b565b60405180910390f35b3480156102a657600080fd5b506102c160048036038101906102bc9190611a36565b61095f565b6040516102ce9190611802565b60405180910390f35b3480156102e357600080fd5b506102fe60048036038101906102f991906118fa565b610a17565b005b34801561030c57600080fd5b506103276004803603810190610322919061193a565b610bb3565b60405161033491906117c7565b60405180910390f35b34801561034957600080fd5b50610352610c5f565b60405161035f91906117c7565b60405180910390f35b34801561037457600080fd5b5061038f600480360381019061038a9190611b98565b610cf1565b005b6000806000837bffffffffffffffffffffffffffffffffffffffffffffffffffffffff19167bffffffffffffffffffffffffffffffffffffffffffffffffffffffff1916815260200190815260200160002060009054906101000a900460ff169050919050565b60606001805461040790611c10565b80601f016020809104026020016040519081016040528092919081815260200182805461043390611c10565b80156104805780601f1061045557610100808354040283529160200191610480565b820191906000526020600020905b81548152906001019060200180831161046357829003601f168201915b5050505050905090565b6000600680549050905090565b6104a2838383610df4565b505050565b60006104b28361095f565b82106104f3576040517f08c379a00000000000000000000000000000000000000000000000000000000081526004016104ea90611c8e565b60405180910390fd5b600860008473ffffffffffffffffffffffffffffffffffffffff1673ffffffffffffffffffffffffffffffffffffffff168152602001908152602001600020828154811061054457610543611cae565b5b9060005260206000200154905092915050565b610561338261103a565b6105a0576040517f08c379a000000000000000000000000000000000000000000000000000000000815260040161059790611d4f565b60405180910390fd5b6105a981611107565b50565b60006105b661048a565b82106105f7576040517f08c379a00000000000000000000000000000000000000000000000000000000081526004016105ee90611c8e565b60405180910390fd5b6006828154811061060b5761060a611cae565b5b90600052602060002001549050919050565b81341461062957600080fd5b600073ffffffffffffffffffffffffffffffffffffffff168373ffffffffffffffffffffffffffffffffffffffff161415610699576040517f08c379a000000000000000000000000000000000000000000000000000000000815260040161069090611de1565b60405180910390fd5b8373ffffffffffffffffffffffffffffffffffffffff166106b9826108ad565b73ffffffffffffffffffffffffffffffffffffffff161461070f576040517f08c379a000000000000000000000000000000000000000000000000000000000815260040161070690611e73565b60405180910390fd5b6001600460008673ffffffffffffffffffffffffffffffffffffffff1673ffffffffffffffffffffffffffffffffffffffff168152602001908152602001600020600082825461075f9190611ec2565b925050819055506001600460008573ffffffffffffffffffffffffffffffffffffffff1673ffffffffffffffffffffffffffffffffffffffff16815260200190815260200160002060008282546107b69190611ef6565b92505081905550826003600083815260200190815260200160002060006101000a81548173ffffffffffffffffffffffffffffffffffffffff021916908373ffffffffffffffffffffffffffffffffffffffff160217905550808473ffffffffffffffffffffffffffffffffffffffff167fa082022e93cfcd9f1da5f9236718053910f7e840da080c789c7845698dc032ff8585604051610858929190611f5b565b60405180910390a38273ffffffffffffffffffffffffffffffffffffffff166108fc839081150290604051600060405180830381858888f193505050501580156108a6573d6000803e3d6000fd5b5050505050565b6000806003600084815260200190815260200160002060009054906101000a900473ffffffffffffffffffffffffffffffffffffffff169050600073ffffffffffffffffffffffffffffffffffffffff168173ffffffffffffffffffffffffffffffffffffffff161415610956576040517f08c379a000000000000000000000000000000000000000000000000000000000815260040161094d90611fd0565b60405180910390fd5b80915050919050565b60008073ffffffffffffffffffffffffffffffffffffffff168273ffffffffffffffffffffffffffffffffffffffff1614156109d0576040517f08c379a00000000000000000000000000000000000000000000000000000000081526004016109c790611fd0565b60405180910390fd5b600460008373ffffffffffffffffffffffffffffffffffffffff1673ffffffffffffffffffffffffffffffffffffffff168152602001908152602001600020549050919050565b6000610a22826108ad565b90508073ffffffffffffffffffffffffffffffffffffffff168373ffffffffffffffffffffffffffffffffffffffff161415610a93576040517f08c379a0000000000000000000000000000000000000000000000000000000008152600401610a8a9061203c565b60405180910390fd5b3373ffffffffffffffffffffffffffffffffffffffff168173ffffffffffffffffffffffffffffffffffffffff1614610b01576040517f08c379a0000000000000000000000000000000000000000000000000000000008152600401610af8906120a8565b60405180910390fd5b826005600084815260200190815260200160002060006101000a81548173ffffffffffffffffffffffffffffffffffffffff021916908373ffffffffffffffffffffffffffffffffffffffff160217905550818373ffffffffffffffffffffffffffffffffffffffff168273ffffffffffffffffffffffffffffffffffffffff167f26163b36b8c330072c04a0a1b97cad1d2aaceabade81788f1ab6cf1eef0c66cc60405160405180910390a4505050565b600a8181548110610bc357600080fd5b906000526020600020016000915090508054610bde90611c10565b80601f0160208091040260200160405190810160405280929190818152602001828054610c0a90611c10565b8015610c575780601f10610c2c57610100808354040283529160200191610c57565b820191906000526020600020905b815481529060010190602001808311610c3a57829003601f168201915b505050505081565b606060028054610c6e90611c10565b80601f0160208091040260200160405190810160405280929190818152602001828054610c9a90611c10565b8015610ce75780601f10610cbc57610100808354040283529160200191610ce7565b820191906000526020600020905b815481529060010190602001808311610cca57829003601f168201915b5050505050905090565b600b81604051610d019190612104565b908152602001604051809103902060009054906101000a900460ff1615610d5d576040517f08c379a0000000000000000000000000000000000000000000000000000000008152600401610d5490612167565b60405180910390fd5b600a81908060018154018082558091505060019003906000526020600020016000909190919091509080519060200190610d989291906115bc565b5060006001600a80549050610dad9190611ec2565b9050610db9338261120b565b6001600b83604051610dcb9190612104565b908152602001604051809103902060006101000a81548160ff0219169083151502179055505050565b600073ffffffffffffffffffffffffffffffffffffffff168273ffffffffffffffffffffffffffffffffffffffff161415610e64576040517f08c379a0000000000000000000000000000000000000000000000000000000008152600401610e5b90611de1565b60405180910390fd5b8273ffffffffffffffffffffffffffffffffffffffff16610e84826108ad565b73ffffffffffffffffffffffffffffffffffffffff1614610eda576040517f08c379a0000000000000000000000000000000000000000000000000000000008152600401610ed190611e73565b60405180910390fd5b6001600460008573ffffffffffffffffffffffffffffffffffffffff1673ffffffffffffffffffffffffffffffffffffffff1681526020019081526020016000206000828254610f2a9190611ec2565b925050819055506001600460008473ffffffffffffffffffffffffffffffffffffffff1673ffffffffffffffffffffffffffffffffffffffff1681526020019081526020016000206000828254610f819190611ef6565b92505081905550816003600083815260200190815260200160002060006101000a81548173ffffffffffffffffffffffffffffffffffffffff021916908373ffffffffffffffffffffffffffffffffffffffff160217905550808273ffffffffffffffffffffffffffffffffffffffff168473ffffffffffffffffffffffffffffffffffffffff167fddf252ad1be2c89b69c2b068fc378daa952ba7f163c4a11628f55a4df523b3ef60405160405180910390a4505050565b60006110458261122c565b611084576040517f08c379a000000000000000000000000000000000000000000000000000000000815260040161107b906121d3565b60405180910390fd5b600061108f836108ad565b90508073ffffffffffffffffffffffffffffffffffffffff168473ffffffffffffffffffffffffffffffffffffffff1614806110fe57508373ffffffffffffffffffffffffffffffffffffffff166110e68461129e565b73ffffffffffffffffffffffffffffffffffffffff16145b91505092915050565b6000611112826108ad565b905061111d8261129e565b506001600460008373ffffffffffffffffffffffffffffffffffffffff1673ffffffffffffffffffffffffffffffffffffffff168152602001908152602001600020600082825461116e9190611ec2565b925050819055506003600083815260200190815260200160002060006101000a81549073ffffffffffffffffffffffffffffffffffffffff021916905581600073ffffffffffffffffffffffffffffffffffffffff168273ffffffffffffffffffffffffffffffffffffffff167fddf252ad1be2c89b69c2b068fc378daa952ba7f163c4a11628f55a4df523b3ef60405160405180910390a45050565b6112158282611323565b61121e816114af565b61122882826114f8565b5050565b6000806003600084815260200190815260200160002060009054906101000a900473ffffffffffffffffffffffffffffffffffffffff169050600073ffffffffffffffffffffffffffffffffffffffff168173ffffffffffffffffffffffffffffffffffffffff161415915050919050565b60006112a9826108ad565b73ffffffffffffffffffffffffffffffffffffffff166003600084815260200190815260200160002060009054906101000a900473ffffffffffffffffffffffffffffffffffffffff1673ffffffffffffffffffffffffffffffffffffffff161461131357600080fd5b61131c826108ad565b9050919050565b600073ffffffffffffffffffffffffffffffffffffffff168273ffffffffffffffffffffffffffffffffffffffff161415611393576040517f08c379a000000000000000000000000000000000000000000000000000000000815260040161138a90612265565b60405180910390fd5b61139c8161122c565b156113a657600080fd5b816003600083815260200190815260200160002060006101000a81548173ffffffffffffffffffffffffffffffffffffffff021916908373ffffffffffffffffffffffffffffffffffffffff1602179055506001600460008473ffffffffffffffffffffffffffffffffffffffff1673ffffffffffffffffffffffffffffffffffffffff16815260200190815260200160002060008282546114489190611ef6565b92505081905550808273ffffffffffffffffffffffffffffffffffffffff16600073ffffffffffffffffffffffffffffffffffffffff167fddf252ad1be2c89b69c2b068fc378daa952ba7f163c4a11628f55a4df523b3ef60405160405180910390a45050565b6006805490506007600083815260200190815260200160002081905550600681908060018154018082558091505060019003906000526020600020016000909190919091505550565b600860008373ffffffffffffffffffffffffffffffffffffffff1673ffffffffffffffffffffffffffffffffffffffff168152602001908152602001600020805490506009600083815260200190815260200160002081905550600860008373ffffffffffffffffffffffffffffffffffffffff1673ffffffffffffffffffffffffffffffffffffffff1681526020019081526020016000208190806001815401808255809150506001900390600052602060002001600090919091909150555050565b8280546115c890611c10565b90600052602060002090601f0160209004810192826115ea5760008555611631565b82601f1061160357805160ff1916838001178555611631565b82800160010185558215611631579182015b82811115611630578251825591602001919060010190611615565b5b50905061163e9190611642565b5090565b5b8082111561165b576000816000905550600101611643565b5090565b6000604051905090565b600080fd5b600080fd5b60007fffffffff0000000000000000000000000000000000000000000000000000000082169050919050565b6116a881611673565b81146116b357600080fd5b50565b6000813590506116c58161169f565b92915050565b6000602082840312156116e1576116e0611669565b5b60006116ef848285016116b6565b91505092915050565b60008115159050919050565b61170d816116f8565b82525050565b60006020820190506117286000830184611704565b92915050565b600081519050919050565b600082825260208201905092915050565b60005b8381101561176857808201518184015260208101905061174d565b83811115611777576000848401525b50505050565b6000601f19601f8301169050919050565b60006117998261172e565b6117a38185611739565b93506117b381856020860161174a565b6117bc8161177d565b840191505092915050565b600060208201905081810360008301526117e1818461178e565b905092915050565b6000819050919050565b6117fc816117e9565b82525050565b600060208201905061181760008301846117f3565b92915050565b600073ffffffffffffffffffffffffffffffffffffffff82169050919050565b60006118488261181d565b9050919050565b6118588161183d565b811461186357600080fd5b50565b6000813590506118758161184f565b92915050565b611884816117e9565b811461188f57600080fd5b50565b6000813590506118a18161187b565b92915050565b6000806000606084860312156118c0576118bf611669565b5b60006118ce86828701611866565b93505060206118df86828701611866565b92505060406118f086828701611892565b9150509250925092565b6000806040838503121561191157611910611669565b5b600061191f85828601611866565b925050602061193085828601611892565b9150509250929050565b6000602082840312156119505761194f611669565b5b600061195e84828501611892565b91505092915050565b60006119728261181d565b9050919050565b61198281611967565b811461198d57600080fd5b50565b60008135905061199f81611979565b92915050565b600080600080608085870312156119bf576119be611669565b5b60006119cd87828801611866565b94505060206119de87828801611990565b93505060406119ef87828801611892565b9250506060611a0087828801611892565b91505092959194509250565b611a158161183d565b82525050565b6000602082019050611a306000830184611a0c565b92915050565b600060208284031215611a4c57611a4b611669565b5b6000611a5a84828501611866565b91505092915050565b600080fd5b600080fd5b7f4e487b7100000000000000000000000000000000000000000000000000000000600052604160045260246000fd5b611aa58261177d565b810181811067ffffffffffffffff82111715611ac457611ac3611a6d565b5b80604052505050565b6000611ad761165f565b9050611ae38282611a9c565b919050565b600067ffffffffffffffff821115611b0357611b02611a6d565b5b611b0c8261177d565b9050602081019050919050565b82818337600083830152505050565b6000611b3b611b3684611ae8565b611acd565b905082815260208101848484011115611b5757611b56611a68565b5b611b62848285611b19565b509392505050565b600082601f830112611b7f57611b7e611a63565b5b8135611b8f848260208601611b28565b91505092915050565b600060208284031215611bae57611bad611669565b5b600082013567ffffffffffffffff811115611bcc57611bcb61166e565b5b611bd884828501611b6a565b91505092915050565b7f4e487b7100000000000000000000000000000000000000000000000000000000600052602260045260246000fd5b60006002820490506001821680611c2857607f821691505b60208210811415611c3c57611c3b611be1565b5b50919050565b7f676c6f62616c20696e646578206973206f7574206f6620626f756e6473210000600082015250565b6000611c78601e83611739565b9150611c8382611c42565b602082019050919050565b60006020820190508181036000830152611ca781611c6b565b9050919050565b7f4e487b7100000000000000000000000000000000000000000000000000000000600052603260045260246000fd5b7f4552433732314275726e61626c653a2063616c6c6572206973206e6f74206f7760008201527f6e6572206e6f7220617070726f76656400000000000000000000000000000000602082015250565b6000611d39603083611739565b9150611d4482611cdd565b604082019050919050565b60006020820190508181036000830152611d6881611d2c565b9050919050565b7f6572726f7220746f207472616e7366657220746f206365726f2061646472657360008201527f7300000000000000000000000000000000000000000000000000000000000000602082015250565b6000611dcb602183611739565b9150611dd682611d6f565b604082019050919050565b60006020820190508181036000830152611dfa81611dbe565b9050919050565b7f547279696e6720746f207472616e73666572206120746f6b656e20612074686560008201527f206164647265737320646f6573206e6f74206f776e2100000000000000000000602082015250565b6000611e5d603683611739565b9150611e6882611e01565b604082019050919050565b60006020820190508181036000830152611e8c81611e50565b9050919050565b7f4e487b7100000000000000000000000000000000000000000000000000000000600052601160045260246000fd5b6000611ecd826117e9565b9150611ed8836117e9565b925082821015611eeb57611eea611e93565b5b828203905092915050565b6000611f01826117e9565b9150611f0c836117e9565b9250827fffffffffffffffffffffffffffffffffffffffffffffffffffffffffffffffff03821115611f4157611f40611e93565b5b828201905092915050565b611f5581611967565b82525050565b6000604082019050611f706000830185611f4c565b611f7d60208301846117f3565b9392505050565b7f7468652061646472657373206e6f7420636f756c6420626520626c616e6b0000600082015250565b6000611fba601e83611739565b9150611fc582611f84565b602082019050919050565b60006020820190508181036000830152611fe981611fad565b9050919050565b7f617070726f76616c20746f2063757272656e74206f776e657200000000000000600082015250565b6000612026601983611739565b915061203182611ff0565b602082019050919050565b6000602082019050818103600083015261205581612019565b9050919050565b7f63757272656e742063616c6c6572206973206e6f7420746865206f776e657200600082015250565b6000612092601f83611739565b915061209d8261205c565b602082019050919050565b600060208201905081810360008301526120c181612085565b9050919050565b600081905092915050565b60006120de8261172e565b6120e881856120c8565b93506120f881856020860161174a565b80840191505092915050565b600061211082846120d3565b915081905092915050565b7f45737465206e6674207961206578697374650000000000000000000000000000600082015250565b6000612151601283611739565b915061215c8261211b565b602082019050919050565b6000602082019050818103600083015261218081612144565b9050919050565b7f746865736520746f6b656e20646f6e2774206578697374000000000000000000600082015250565b60006121bd601783611739565b91506121c882612187565b602082019050919050565b600060208201905081810360008301526121ec816121b0565b9050919050565b7f4552433732313a206d696e74696e6720746f20746865207a65726f206164647260008201527f6573000000000000000000000000000000000000000000000000000000000000602082015250565b600061224f602283611739565b915061225a826121f3565b604082019050919050565b6000602082019050818103600083015261227e81612242565b905091905056fea2646970667358221220c41120bc90ec759fc615b0dc2bccef3818f06970c6a60a570005706b1ecd9d6764736f6c634300080b0033",
  "immutableReferences": {},
  "source": "// SPDX-License-Identifier: MIT\r\npragma solidity ^0.8.0;\r\n\r\nimport './ERC721Connector.sol';\r\ncontract KryptoBird is ERC721Connector{\r\n\r\n    string [] public kryptoBirdz;\r\n\r\n    mapping (string=>bool) _kryptoBirdzExist;\r\n\r\n\r\n\r\n    function mint(string memory _kryptobirdz) public{\r\n\r\n        require(!_kryptoBirdzExist[_kryptobirdz], 'Este nft ya existe');        \r\n        //crear un espacio dentro de la cadena para el nft unico\r\n        kryptoBirdz.push(_kryptobirdz);\r\n        uint _id=kryptoBirdz.length-1;\r\n         //emplea la funcion almacenada en ERC721 _mint para crear el id unico del nft\r\n        _mint(msg.sender, _id);\r\n\r\n        //verificar si el id del nft no es nulo y existe dentro de la lista \r\n        _kryptoBirdzExist[_kryptobirdz]=true;\r\n    }\r\n    constructor() ERC721Connector(\"KryptoBird\",\"KBIRDZ\"){\r\n\r\n    }\r\n}",
  "sourcePath": "C:\\Users\\Abraham\\Desktop\\p\\client\\src\\contracts\\KryptoBird.sol",
  "compiler": {
    "name": "solc",
    "version": "0.8.11+commit.d7f03943.Emscripten.clang"
  },
  "schemaVersion": "3.4.5",
  "updatedAt": "2022-04-20T07:00:05.854Z",
  "networkType": "ethereum",
  "devdoc": {
    "kind": "dev",
    "methods": {
      "supportsInterface(bytes4)": {
        "details": "Interface identification is specified in ERC-165. This function  uses less than 30,000 gas.",
        "params": {
          "interfaceID": "The interface identifier, as specified in ERC-165"
        },
        "returns": {
          "_0": "`true` if the contract implements `interfaceID` and  `interfaceID` is not 0xffffffff, `false` otherwise"
        }
      }
    },
    "version": 1
  },
  "userdoc": {
    "kind": "user",
    "methods": {
      "supportsInterface(bytes4)": {
        "notice": "Query if a contract implements an interface"
      }
    },
    "version": 1
  }
}